S0130000436E74496E7665727465722E737265639D
S11300000C94B5000C9481050C9495050C94D200C5
S11300100C94D2000C94D2000C94D2000C94AC0238
S11300200C94D2000C94D2000C94D2000C94D20004
S11300300C94D2000C94D2000C94D2000C94D200F4
S11300400C94D2000C94D2000C94D2000C94D200E4
S11300500C94D2000C94D2000C94D2000C94D200D4
S11300600C94D2000C94D2006E616E00696E66002E
S113007000407A10F35A00A0724E18090010A5D45B
S1130080E80000E87648170000E40B54020000CAB8
S11300909A3B000000E1F5050000809698000000FE
S11300A040420F000000A08601000000102700005D
S11300B00000E803000000006400000000000A00E3
S11300C0000000000100000000002C76D888DC67E6
S11300D04F0823DFC1DFAE59E1B1B796E5E3E4533E
S11300E0C63AE651997696E8E6C28426EB898C9B5B
S11300F062ED407C6FFCEFBC9C9F40F2BAA56FA5FB
S1130100F490055A2AF75C936B6CF9676DC11BFC7C
S1130110E0E40D47FEF520E6B500D0ED902E030097
S1130120943577050080841E080000204E0A0000E4
S113013000C80C333333330F986E12831141EF8DA3
S11301402114893BE65516CFFEE6DB18D1844B38E3
S11301501BF77C1D901DA4BBE424203284725E2214
S11301608100C9F124ECA1E53D2711241FBECFEF86
S1130170D8E0DEBFCDBF11E0A0E0B1E0E2EBF3E2F6
S113018002C005900D92A638B107D9F722E0A6E87F
S1130190B1E001C01D92A43EB207E1F70E948B03B7
S11301A00C94D7110C940000AC0180917C00807FEA
S11301B080937C0080917C00842B80937C008091D0
S11301C07A00806480937A0080917A0086FDFCCF67
S11301D081E2849F9001859F300D1124F901E3563B
S11301E0FE4F90A16091780070917900290F311D24
S11301F0290F311DD901A356BE4F6D937C939F5F88
S1130200903110F490A301C010A281E2849FB00148
S1130210859F700D112420E030E080E090E0F9012A
S1130220E60FF71FE356FE4F40815181840F951F5F
S11302302E5F3F4F2032310591F724E09695879544
S11302402A95E1F7089596B19095892F8E702091A3
S11302508E01282780938E012223C1F021FF04C040
S113026091FB882780F9089522FF06C0892F8470A6
S113027092FF0DC082E00895822F887023FF07C08B
S1130280892F887093FF03C083E0089580E0089568
S1130290CF92DF92EF92FF920F931F93CF93DF934E
S11302A081E1E4E8F2E0DF011D928A95E9F780E05C
S11302B090E00E949811823D09F455C095E8E92E1A
S11302C092E0F92EC0E0D0E02EE1C22ED12CF7014D
S11302D0C192D1927F018E01000F111FC8010196B6
S11302E020918F01309190016EE170E0820F931F95
S11302F00E94C211D70115961C921E921497095F91
S11303001F4F80918F019091900160E070E0800F09
S1130310911F0E94C2112196C330D105C1F61092DB
S11303209102109292021092930210929402809180
S11303308F019091900140E050E0BA010D960E9427
S1130340BA1182ED8093840262ED80918F019091C5
S11303509001DF91CF911F910F91FF90EF90DF906B
S1130360CF900C94AC11E0908F01F0909001C701F4
S11303700E9498118093840287010F5F1F4FC5E884
S1130380D2E0C8010E94A61189939993C8010696E8
S11303900E94A6119D838C830E5F1F4FB2E0CB3861
S11303A0DB0779F7C7010D960E94A01160939102B3
S11303B0709392028093930290939402DF91CF9171
S11303C01F910F91FF90EF90DF90CF9008958130AF
S11303D091F068F08230D1F0833029F56091910278
S11303E07091920280919302909194020895609189
S11303F0840270E008C0E62FF0E0EE0FFF1FEC5718
S1130400FD4F6181728180E090E00895E62FF0E075
S1130410EE0FFF1FEC57FD4F67817085072E000C10
S1130420880B990B089560E070E0CB010895962F36
S1130430BA01813079F028F08230E1F0833081F123
S1130440089520938402622F80918F0190919001EE
S11304500C94AC11892F90E0B901880F991FFC010D
S1130460EC57FD4F21837283019620918F013091C7
S1130470900112C0892F90E0880F991FFC01EC575E
S1130480FD4F522F432F27833087079620918F01EA
S113049030919001652F742F820F931F0C94C21119
S11304A020939102309392024093930270939402AA
S11304B080918F0190919001A9010D960C94BA112D
S11304C0219AE0E8F0E0808183688083E1E8F0E04D
S11304D0808182608083109289001092880010923B
S11304E0850010928400089524E0829FC0011124A5
S11304F0909389008093880008951092B0008BE057
S11305008093B10082E08093700088EE8093B30002
S113051010929501109296011092970110929801F1
S11305201092990110929A0110929B0110929C01D1
S11305300895F89420919501309196014091970186
S1130540509198016091990170919A0180919B0159
S113055090919C01789408951F920F920FB60F9278
S113056011242F933F934F935F936F937F938F93B4
S11305709F93AF93209195013091960140919701FB
S1130580509198016091990170919A0180919B0119
S113059090919C01A1E00E94DF0F2093950130937C
S11305A09601409397015093980160939901709339
S11305B09A0180939B0190939C01AF919F918F919D
S11305C07F916F915F914F913F912F910F900FBE4B
S11305D00F901F901895AF92BF92CF92DF92EF9237
S11305E0FF920F931F9359016A017B018C010E94B2
S11305F099020E94D60F1F910F91FF90EF90DF9008
S1130600CF90BF90AF900895AF92BF92CF92DF92F8
S1130610EF92FF920F931F9359016A017B018C01A2
S11306200E9499020E94EB0F2095309540955095B9
S113063060957095809590950FE30E94BA0F822F74
S11306401F910F91FF90EF90DF90CF90BF90AF90EC
S1130650089520918601309187014091880150913D
S1130660890160918A0170918B0180918C01909134
S11306708D010E9404038823F1F09BB180E1892756
S11306808BB90E9499022C503E4F4F4F5F4F6F4FD2
S11306907F4F8F4F9F4F2093860130938701409364
S11306A088015093890160938A0170938B01809330
S11306B08C0190938D010895F8948EEF84B915B848
S11306C017B880E38AB980EF8BB98AE08093690018
S11306D083E08DBBEAE7F0E0808187608083ACE74C
S11306E0B0E08C9180648C938081806880830E94C8
S11306F07D020E9460028EE40E94080B80E00E944A
S1130700770B2FE38DE093E0215080409040E1F798
S113071000C0000008950E945C0310929802109299
S113072099021092970285E992E00E949F037894BF
S113073085E992E00E94BA060E942903F9CFCF937B
S1130740DF93EC018FE4FE0111928A95E9F70E9490
S1130750480184E190E098878F831D8289818E838C
S11307606B8181E00E94E70178876F83329905C02D
S113077082E08C8381E0888301C01882DF91CF916D
S11307800C946B0B0F931F93CF93DF93FC01248185
S11307902111D8C0EC0180E191E09F938F9381E017
S11307A08F930E94800B0F900F900F909B818C89E8
S11307B00F811885911161C09B85913071F581116C
S11307C094C028E031E060E070E090E03F932F9324
S11307D09F938F937F936F93B801110F880B990B9D
S11307E00E94DD0920E030E040E251EC0E94330930
S11307F09F938F937F936F9385E291E09F938F9361
S113080082E08F930E94800B8DB79EB70D960FB632
S1130810F8949EBF0FBE8DBF5DC0923071F58111FB
S113082073C028E031E060E070E090E03F932F93E4
S11308309F938F937F936F93B801110F880B990B3C
S11308400E94DD0920E030E040E251EC0E943309CF
S11308509F938F937F936F938CE391E09F938F93F8
S113086082E08F930E94800BEDB7FEB73D960FB6E2
S1130870F894FEBF0FBEEDBF2DC0811154C028E017
S113088031E060E070E090E03F932F939F938F936B
S11308907F936F93B801110F880B990B0E94DD09A8
S11308A020E030E040E251EC0E9433099F938F93A3
S11308B07F936F9383E591E09F938F9382E08F936F
S11308C00E94800B8DB79EB70D960FB6F8949EBF0D
S11308D00FBE8DBFCD5BDF4F89E499E0A0E0B0E0AF
S11308E088839983AA83BB832DC069857A8580E038
S11308F090E00E94DB0920E030E048EC52E40E94E2
S113090033092CE031E062CF69857A8580E090E09C
S11309100E94DB0920E030E048EC52E40E943309F5
S11309202CE031E083CF69857A8580E090E00E94F5
S1130930DB0920E030E048EC52E40E9433092CE06B
S113094031E0A2CFDF91CF911F910F9108958111D2
S113095005C0662311F05D9A08955D980895CF92BD
S1130960DF92EF92FF92CF93DF93FC01808181119C
S11309705FC0EB0160E082E00E94E7016B017C0153
S1130980BE0180E090E00E94DB0923E333E343E20D
S113099050E40E94690A0E94A509C60ED71EC6012A
S11309A002968F3F910519F014F08FEF90E06C01DF
S11309B097FF02C0C12CD12C80919101909192019A
S11309C0C816D906A9F18C159D05CCF48091910126
S11309D090919201C816D9065CF10E94740289EFC5
S11309E090E00197F1F700C000008091910190918F
S11309F0920101969093920180939101E7CF8091A7
S1130A009101909192018C159D0594F00E947402BD
S1130A10E9EFF0E03197F1F700C000008091910117
S1130A209091920101979093920180939101E7CF65
S1130A30DF91CF91FF90EF90DF90CF900895CF9208
S1130A40DF92FF920F931F93CF93DF938C016C017E
S1130A5025E0C20ED11CC0E0D0E083E0F82EF801FE
S1130A60878190858C179D07D4F0F80184898823A9
S1130A7021F0BE01C6010E94AF04FCBAC930D10501
S1130A8014F0FDBA01C01DBAFFE72AE186E0F15077
S1130A9020408040E1F700C000002296E0CFDF91C3
S1130AA0CF911F910F91FF90DF90CF900895FC019B
S1130AB02081211125C06623C1F01682108A118A73
S1130AC0128A138A83E08CBB8DBB83ED90E301977C
S1130AD0F1F700C000002A9A62817381CF010E945D
S1130AE0AF0481E080939301089583E08CBB1DBA29
S1130AF060E070E0CF010E94AF042A981092930145
S1130B0008951F920F920FB60F9211248F93809124
S1130B109301882321F081E08093AA021DBA8F916A
S1130B200F900FBE0F901F9018951F920F920FB643
S1130B300F9211248F9380919301882321F081E0F7
S1130B408093AB021DBA8F910F900FBE0F901F9030
S1130B501895CF92DF92EF92FF920F931F93CF934A
S1130B60DF938C01FC01C381CC2ED12CFDE1CF9FFE
S1130B70E00111247E0185E0E80EF11CE00EF11E77
S1130B800E9423018230A9F0833009F43DC08130F2
S1130B9009F072C0F801848181116EC0C00FD11FA9
S1130BA08F81988502968333910584F082E390E0E7
S1130BB00DC0F801848181115FC0C00FD11F8F81E6
S1130BC09885029797FF02C080E090E098878F8312
S1130BD0C8010E94C2038DE18C9DF0018D9DF00D32
S1130BE01124E00FF11F8489882309F445C067812B
S1130BF07085C701DF91CF911F910F91FF90EF9006
S1130C00DF90CF900C94AF04F8018481811134C03B
S1130C108EE40E94080BC00FD11F9C8981E08927B4
S1130C208C8BC8010E94C2038C89882379F061E00F
S1130C30C7010E945705C801DF91CF911F910F9101
S1130C40FF90EF90DF90CF900C941F0560E0C701F8
S1130C500E9457052F813885032E000C440B550B39
S1130C6060E081E0DF91CF911F910F91FF90EF90B1
S1130C70DF90CF900C941702DF91CF911F910F91C9
S1130C80FF90EF90DF90CF900895CF92DF92EF9294
S1130C90FF920F931F93CF93DF938C01FC01C381C9
S1130CA0CC2ED12CFDE1CF9FE00111247E0185E003
S1130CB0E80EF11CE00EF11E0E942301823081F047
S1130CC08330A1F1813009F04CC0C00FD11F8F8156
S1130CD0988502968333910564F082E390E009C01D
S1130CE0C00FD11F8F819885029797FF02C080E0C3
S1130CF090E098878F83C8010E94C2038DE18C9D88
S1130D00F0018D9DF00D1124E00FF11F84898823DB
S1130D1041F167817085C701DF91CF911F910F91D8
S1130D20FF90EF90DF90CF900C94AF04C00FD11FD1
S1130D309C8981E089278C8BC8010E94C2032C897D
S1130D40C8010596222311F061E001C060E0DF9143
S1130D50CF911F910F91FF90EF90DF90CF900C9463
S1130D605705DF91CF911F910F91FF90EF90DF9086
S1130D70CF9008953F924F925F926F927F928F929D
S1130D809F92AF92BF92CF92DF92EF92FF920F9316
S1130D901F93CF93DF93EC0181E090E00E94D40095
S1130DA0BC0180E090E00E94DB0922E537E240E2EA
S1130DB05CE30E94690A688B798B8A8B9B8B80E049
S1130DC090E00E94D400BC0180E090E00E94DB0926
S1130DD024E83BE240E25BE30E94690A6C877D877A
S1130DE08E879F8720E030E048EC52E40E94690A35
S1130DF00E94AC097A8769878B858111D6C17E01EF
S1130E0025E0E20EF11C8D89882309F4E5C01D8AD2
S1130E108F898F5F8F8B853070F081E08B872A9864
S1130E2060E070E0C7010E94AF041C8A1F8A8EE450
S1130E300E94080BD1C02A981C8A60E070E0C701A8
S1130E400E94AF048EE40E94080BCE010E94C203EC
S1130E50A12CB12C48E0642E41E0742E5EE6C52E30
S1130E6051E0D52E62E0462E7AE6872E71E0972E69
S1130E703F888C890F8118855520D1F1882369F02A
S1130E8069857A8580E090E00E94DB0920E030E00B
S1130E9048EC52E40E94330904C060E070E080E052
S1130EA090E01F923F929F928F929F938F937F9394
S1130EB06F93B801110F880B990B0E94DD0920E094
S1130EC030E040E251EC0E9433099F938F937F936B
S1130ED06F93DF92CF924F920E94800B8DB79EB793
S1130EE00F960FB6F8949EBF0FBE8DBF512C3AC01B
S1130EF0882369F069857A8580E090E00E94DB09A7
S1130F0020E030E048EC52E40E94330904C060E081
S1130F1070E080E090E01F923F927F926F929F93E7
S1130F208F937F936F93B801110F880B990B0E94D5
S1130F30DD0920E030E040E251EC0E9433099F9348
S1130F408F937F936F93DF92CF924F920E94800B87
S1130F508DB79EB70F960FB6F8949EBF0FBE8DBF88
S1130F60552453949FE322E48FE091502040804025
S1130F70E1F700C000009FEFA91AB90A2AE0A216FF
S1130F80B10409F075CF8F89823011F0843029F4CF
S1130F908F819885029798878F838F81988597FF93
S1130FA002C018861F8281E08C8B2A9ACE010E948F
S1130FB01F058EE40E94080BCE010E94C2032F81FC
S1130FC03885032E000C440B550B60E081E00E9431
S1130FD0170283E08CBB8DBB8E89882309F4E5C09E
S1130FE01E8A888D8F5F888F853070F082E08B87B2
S1130FF02A9860E070E0C7010E94AF041C8A188E32
S11310008EE40E94080BD1C02A981C8A60E070E02C
S1131010C7010E94AF048EE40E94080BCE010E9417
S1131020C203C12CD12C88E0882E81E0982E9EE644
S1131030E92E91E0F92E22E0722E3AE6A32E31E059
S1131040B32E8C890F811885688C5520D1F18823A3
S113105069F069857A8580E090E00E94DB0920E0F0
S113106030E048EC52E40E94330904C060E070E0D0
S113107080E090E01F926F92BF92AF929F938F9304
S11310807F936F93B801110F880B990B0E94DD09B0
S113109020E030E040E251EC0E9433099F938F93AB
S11310A07F936F93FF92EF927F920E94800B8DB794
S11310B09EB70F960FB6F8949EBF0FBE8DBF512CEE
S11310C03AC0882369F069857A8580E090E00E94BF
S11310D0DB0920E030E048EC52E40E94330904C00C
S11310E060E070E080E090E01F926F929F928F9298
S11310F09F938F937F936F93B801110F880B990B74
S11311000E94DD0920E030E040E251EC0E94330906
S11311109F938F937F936F93FF92EF927F920E949E
S1131120800B8DB79EB70F960FB6F8949EBF0FBE77
S11311308DBF552453949FE322E48FE091502040C7
S11311408040E1F700C000009FEFC91AD90A2AE0E5
S1131150C216D10409F075CF888D823011F0843025
S113116029F48F819885029798878F838F8198853A
S113117097FF02C018861F8281E08C8B2A9ACE01C9
S11311800E941F058EE40E94080BCE010E94C20338
S11311902F813885032E000C440B550B60E081E051
S11311A00E94170283E08CBB8DBB8881811104C02F
S11311B0CE010E94A90503C0CE010E9445068B857D
S11311C0811102C060E002C061E080E00E94A704D7
S11311D08B85882311F061E001C060E081E00E940A
S11311E0A7048E8C9F8CA8A0B9A09401A50160E0EF
S11311F070E080E090E00E940403882311F120ED68
S113120037E040E050E060E070E080E090E00E9471
S1131210EB022E8F3F8F48A359A3CE01DF91CF91CC
S11312201F910F91FF90EF90DF90CF90BF90AF9000
S11312309F908F907F906F905F904F903F900C9411
S1131240C203DF91CF911F910F91FF90EF90DF9038
S1131250CF90BF90AF909F908F907F906F905F9052
S11312604F903F9008950E9447090C942F0A0E94C2
S1131270280A58F00E94210A40F029F45F3F29F01F
S11312800C94180A51110C94630A0C941E0A0E94BF
S1131290400A68F39923B1F3552391F3951B550B39
S11312A0BB27AA2762177307840738F09F5F5F4F35
S11312B0220F331F441FAA1FA9F335D00E2E3AF074
S11312C0E0E832D091505040E695001CCAF72BD08C
S11312D0FE2F29D0660F771F881FBB1F26173707DD
S11312E04807AB07B0E809F0BB0B802DBF01FF270F
S11312F093585F4F3AF09E3F510578F00C94180ACA
S11313000C94630A5F3FE4F3983ED4F38695779593
S11313106795B795F7959F5FC9F7880F911D9695C7
S1131320879597F90895E1E0660F771F881FBB1F23
S1131330621773078407BA0720F0621B730B840BD0
S1131340BA0BEE1F88F7E09508950E94AC096894E3
S1131350B1110C94630A08950E94480A88F09F57BB
S113136098F0B92F9927B751B0F0E1F0660F771FC5
S1131370881F991F1AF0BA95C9F714C0B13091F0BB
S11313800E94620AB1E008950C94620A672F782FD4
S11313908827B85F39F0B93FCCF386957795679580
S11313A0B395D9F73EF490958095709561957F4FEC
S11313B08F4F9F4F0895E89409C097FB3EF4909592
S11313C08095709561957F4F8F4F9F4F9923A9F01A
S11313D0F92F96E9BB279395F695879577956795A9
S11313E0B795F111F8CFFAF4BB0F11F460FF1BC0ED
S11313F06F5F7F4F8F4F9F4F16C0882311F096E980
S113140011C0772321F09EE8872F762F05C066232D
S113141071F096E8862F70E060E02AF09A95660FE6
S1131420771F881FDAF7880F9695879597F908959F
S113143097F99F6780E870E060E008959FEF80EC83
S1131440089500240A941616170618060906089526
S113145000240A9412161306140605060895092E8C
S11314600394000C11F4882352F0BB0F40F4BF2BFB
S113147011F460FF04C06F5F7F4F8F4F9F4F08953B
S113148057FD9058440F551F59F05F3F71F0479531
S1131490880F97FB991F61F09F3F79F08795089516
S11314A0121613061406551FF2CF4695F1DF08C035
S11314B0161617061806991FF1CF86957105610552
S11314C008940895E894BB2766277727CB0197F9FA
S11314D008950E947C0A0C942F0A0E94210A38F075
S11314E00E94280A20F0952311F00C94180A0C94F9
S11314F01E0A11240C94630A0E94400A70F3959FFB
S1131500C1F3950F50E0551F629FF001729FBB27F6
S1131510F00DB11D639FAA27F00DB11DAA1F649F92
S11315206627B00DA11D661F829F2227B00DA11D45
S1131530621F739FB00DA11D621F839FA00D611DCB
S1131540221F749F3327A00D611D231F849F600DEC
S1131550211D822F762F6A2F11249F5750409AF015
S1131560F1F088234AF0EE0FFF1FBB1F661F771FA1
S1131570881F91505040A9F79E3F510580F00C946C
S1131580180A0C94630A5F3FE4F3983ED4F38695FB
S113159077956795B795F795E7959F5FC1F7FE2B0C
S11315A0880F911D9695879597F90895CF93DF93AA
S11315B000D000D0CDB7DEB7962F907F942B292F83
S11315C02C60298398609A8390E1699FB00111246B
S11315D0642B962F9C609B8368606C8344E050E08E
S11315E0BE016F5F7F4F0E94DB0BEFECF7E031979A
S11315F0F1F700C000000F900F900F900F90DF9153
S1131600CF91089540E00C94D60A41E00C94D60A98
S1131610CF93C82F0E94A40B2FEF80E792E02150B4
S113162080409040E1F700C0000060E38C2F0E94EE
S1131630020B60E38C2F0E94020B60E38C2F0E944C
S1131640020B62E08C2F0E94020B6CE08C2F0E9434
S1131650020B61E08C2F0E94020BC0939401CF9186
S11316600895CF93DF93EC016991662329F080916B
S113167094010E94050BF8CFDF91CF910895CF9389
S1131680DF93CDB7DEB728970FB6F894DEBF0FBE51
S1131690CDBF98E0E0E0F1E0DE01119601900D92FB
S11316A09A95E1F79E012F5F3F4F260F311D260FBC
S11316B0311DF90132976081860F682F606880912F
S11316C0940128960FB6F894DEBF0FBECDBFDF910C
S11316D0CF910C94020B61E0809194010E94020B63
S11316E08FE39FE10197F1F700C00000089588237C
S11316F011F06CE001C068E0809194010C94020B3D
S1131700CF93DF93CDB7DEB7A0970FB6F894DEBFC3
S11317100FBECDBFAE01485D5F4F6EA17FA1CE016C
S113172001960E941E116DA180E00E943F0BCE0124
S113173001960E94310BA0960FB6F894DEBF0FBE3F
S1131740CDBFDF91CF91089588E48093B8000895C8
S11317501092BC0094EA9093BC009091BC0097FF57
S1131760FCCF9091B900987F983011F081E00895F2
S11317708093BB0084E88093BC008091BC0087FF09
S1131780FCCF8091B900887F883111F0803471F7E3
S113179080E008958093BB0084E88093BC0080912E
S11317A0BC0087FFFCCF9091B900987F81E098320C
S11317B009F480E00895DF92EF92FF920F931F9354
S11317C0CF93DF93D62E072F7A010E94A80B182FF0
S11317D081110CC0CD2DD02FEC0EFD1ECE15DF05D2
S11317E039F089910E94CA0B8823C1F311E003C028
S11317F084E98093BC00812FDF91CF911F910F91D9
S1131800FF90EF90DF900895A0E1B0E0EAE0FCE003
S11318100C94810F7C011B016A01FC011782168262
S1131820838181FF44C39E012F5F3F4F3901F7013C
S11318309381F10193FD859193FF81911F01882389
S113184009F431C3853239F493FD859193FF819175
S11318501F01853239F4B70190E00E94E21056016D
S11318606501E5CF10E0512C912CFFE1F915D8F07A
S11318708B3279F038F4803279F08332A1F4F92D87
S1131880F0612EC08D3261F0803369F4292D21601E
S11318902DC0392D3260932E892D8460982E2AC054
S11318A0E92DE86015C097FC2DC020ED280F2A30E3
S11318B088F496FE06C03AE0139F200D1124122FDF
S11318C019C08AE0589E200D1124522EE92DE062A1
S11318D09E2E10C08E3231F496FCE5C2F92DF064D0
S11318E09F2E08C08C3621F4292D2068922E02C028
S11318F0883641F4F10193FD859193FF81911F0195
S11319008111B3CF9BEB980F933020F4992D906104
S1131910805E07C09BE9980F933008F066C1992D4B
S11319209F7E96FF16E09F73992E853619F4906476
S1131930992E08C0863621F4392F3068932E02C0C0
S11319401111115097FE07C01C3350F444244394E2
S1131950410E27E00BC0183038F027E017E005C02F
S113196027E09CE3492E02C0212F412C560184E03C
S1131970A80EB11CF6016081718182819381042DCE
S1131980A3010E94F40F6C01F981FC87F0FF02C0EF
S1131990F3FF06C091FC06C092FE06C000E205C03B
S11319A00DE203C00BE201C000E08C858C7019F0DD
S11319B001115AC29BC297FE10C04C0CFC85F4FF67
S11319C004C08A81813309F44A94141474F528E01C
S11319D0241578F588E0482E2CC096FC2AC0812F67
S11319E090E08C159D059CF03CEFC3163FEFD306A9
S11319F074F0892D8068982E0AC0E2E0F0E0EC0FC4
S1131A00FD1FE10FF11D8081803319F41150111174
S1131A10F4CF97FE0EC044244394410E812F90E0EE
S1131A20C816D9062CF41C1904C04424439401C0DC
S1131A3010E097FE06C01C141D0434F4C601019680
S1131A4005C085E090E002C081E090E001110196BC
S1131A50112331F0212F30E02F5F3F4F820F931F6E
S1131A60252D30E08217930714F4581A01C0512C25
S1131A70892D897049F4552039F0B70180E290E04E
S1131A800E94E2105A94F7CF002329F0B701802F67
S1131A9090E00E94E21093FC09C0552039F0B70190
S1131AA080E390E00E94E2105A94F7CF97FE4CC076
S1131AB04601D7FE02C0812C912CC60188199909D0
S1131AC0F301E80FF91FFE87ED8796012419310908
S1131AD0388B2F87012F10E01195019511093FEFE5
S1131AE08316930629F4B7018EE290E00E94E21077
S1131AF0C814D9044CF08F8598898815990524F465
S1131B00ED85FE85818101C080E3F1E08F1A9108A3
S1131B102D853E852F5F3F4F3E872D87801691068A
S1131B202CF0B70190E00E94E210D9CFC814D90478
S1131B3041F49A81963320F4953319F43C8534FFAB
S1131B4081E3B70190E04EC08A81813319F09C850E
S1131B509F7E9C87B70190E00E94E210111105C09E
S1131B6094FC18C085E690E017C0B7018EE290E0BF
S1131B700E94E2101E5F82E001E0080FF301E80F0B
S1131B80F11D8081B70190E00E94E210802F0113C3
S1131B90F3CFE6CF85E490E0B7010E94E210D7FCD2
S1131BA006C0C114D10441F4EC85E4FF05C0D1940E
S1131BB0C194D1088DE201C08BE2B70190E00E948C
S1131BC0E21080E32AE0C216D1042CF08F5FFAE021
S1131BD0CF1AD108F7CFB70190E00E94E210B70105
S1131BE0C601C0960E94E21054C1833631F0833797
S1131BF079F0833509F056C020C0560132E0A30EB7
S1131C00B11CF6018081898301E010E0630112C0F8
S1131C105601F2E0AF0EB11CF601C080D18096FEF1
S1131C2003C0612F70E002C06FEF7FEFC6010E9416
S1131C30D7108C01F92DFF7714C0560122E0A20EB3
S1131C40B11CF601C080D18096FE03C0612F70E004
S1131C5002C06FEF7FEFC6010E94CC108C01F92DFA
S1131C60F0689F2EF3FD1AC0852D90E00817190720
S1131C70A8F4B70180E290E00E94E2105A94F4CFF5
S1131C80F60197FC859197FE81916F01B70190E071
S1131C900E94E21051105A940150110901151105C6
S1131CA079F7F7C0843611F0893661F5560197FE4D
S1131CB009C024E0A20EB11CF60160817181828109
S1131CC093810AC0F2E0AF0EB11CF601608171810C
S1131CD0072E000C880B990BF92DFF769F2E97FF8A
S1131CE009C090958095709561957F4F8F4F9F4F58
S1131CF0F0689F2E2AE030E0A3010E943A11C82E1A
S1131D00C6183FC0092D853721F40F7E2AE030E044
S1131D101DC0097F8F3691F018F4883559F0C3C07F
S1131D20803719F0883711F0BEC0006104FF09C084
S1131D30046007C094FE08C0066006C028E030E0D6
S1131D4005C020E130E002C020E132E0560107FF87
S1131D5009C084E0A80EB11CF60160817181828102
S1131D60938108C0F2E0AF0EB11CF601608171816D
S1131D7080E090E0A3010E943A11C82EC6180F77A4
S1131D80902E96FE0BC0092D0E7FC11650F494FEC2
S1131D900AC092FC08C0092D0E7E05C0DC2C092D5A
S1131DA003C0DC2C01C0D12E04FF0DC0FE01EC0DDC
S1131DB0F11D8081803311F4097E09C002FF06C041
S1131DC0D394D39404C0802F867809F0D39403FD70
S1131DD011C000FF06C01C2DD51480F4150D1D196B
S1131DE00DC0D51458F4B70180E290E00E94E210CF
S1131DF0D394F7CFD51410F45D1801C0512C04FF0F
S1131E0010C0B70180E390E00E94E21002FF17C007
S1131E1001FD03C088E790E002C088E590E0B701C7
S1131E200CC0802F867859F001FF02C08BE201C0FC
S1131E3080E207FD8DE2B70190E00E94E210C11636
S1131E4038F4B70180E390E00E94E2101150F7CF1C
S1131E50CA94F301EC0DF11D8081B70190E00E945A
S1131E60E210C110F5CF15C0F4E0F51560F584E07B
S1131E70581A93FE1FC0011127C02C8523FF2AC0C6
S1131E8008E610E0392D3071932EF8018491811108
S1131E9024C0552009F4E4CCB70180E290E00E940C
S1131EA0E2105A94F6CFF7018681978126C08FEF0E
S1131EB09FEF23C0B70180E290E00E94E2105A94A1
S1131EC05110F8CFD8CF512CB701802F90E00E9449
S1131ED0E210D3CF0CE610E0D5CF91108052B701B9
S1131EE090E00E94E2100F5F1F4FCFCF23E0251533
S1131EF010F483E0BDCF512CC0CF6096E2E10C9486
S1131F009D0F2F923F924F925F926F927F928F928A
S1131F109F92AF92BF92CF92DF92EF92FF920F9374
S1131F201F93CF93DF93CDB7DEB7CA1BDB0B0FB67E
S1131F30F894DEBF0FBECDBF09942A88398848883B
S1131F405F846E847D848C849B84AA84B984C884D1
S1131F50DF80EE80FD800C811B81AA81B981CE0FC8
S1131F60D11D0FB6F894DEBF0FBECDBFED010895AD
S1131F7097FB10F8169400080F93083098F0085057
S1131F80232F342F452F562F672F782F892F902DED
S1131F90F4CF0594979587957795679557954795C9
S1131FA0379527950A95AAF70F9108952A0D3B1D99
S1131FB04C1D5D1D6E1D7F1D801F911F0895002403
S1131FC0A7FD00942A0F301D401D501D601D701D7B
S1131FD0801D901D08952A193B094C095D096E095D
S1131FE07F09800B910B0895283008F027E03327F0
S1131FF0DA01990F311D87FD916000966105710525
S113200039F432602E5F3D9330E32A95E1F7089569
S11320109F3F30F080387105610509F03C5F3C5FFB
S11320203D93913008F08068911DDF93CF931F9307
S11320300F93FF92EF92192F987F9695E92F96951B
S11320409695E90FFF27E653FF4F99273327EE2490
S1132050FF24A701E70105900894079428F4360F9C
S1132060E71EF81E491F511D660F771F881F991F11
S11320700694A1F70590079428F4E70EF81E491F6B
S1132080561FC11D770F881F991F661F0694A1F75D
S11320900590079428F4F80E491F561FC71FD11D39
S11320A0880F991F661F771F0694A1F70590079460
S11320B020F4490F561FC71FD81F990F661F771F9B
S11320C0881F0694A9F784911095177041F0D6954E
S11320D0C79557954795F794E7941A95C1F7E0E7A4
S11320E0F0E068941590159135916591959105905E
S11320F07FE27395E118F10A430B560BC90BD00923
S1132100C0F7E10CF11E431F561FC91FD01D7EF4FA
S1132110703311F48A95E6CFE894015030F0080F3B
S11321200AF40027021708F4202F2395022F7A338C
S113213028F079E37D932A95E9F710C07D932A95D9
S113214089F6069497956795379517951794E1182E
S1132150F10A430B560BC90BD00998F023957E91D5
S113216073957A3308F070E37C932013B8F77E916B
S113217070617D9330F0839571E37D9370E32A95CC
S1132180E1F71124EF90FF900F911F91CF91DF9110
S1132190992787FD90950895FC0105906150704042
S11321A00110D8F7809590958E0F9F1F0895FC011C
S11321B06150704001900110D8F7809590958E0F72
S11321C09F1F08950F931F93CF93DF93FB012381E8
S11321D021FD03C08FEF9FEF2CC022FF16C0468164
S11321E05781248135814217530744F4A081B1817A
S11321F09D012F5F3F4F318320838C93268137814C
S11322002F5F3F4F3783268314C08B01EC01FB0102
S11322100084F185E02D0995892BE1F6D801169605
S11322208D919C911797019617969C938E93169770
S1132230CE01DF91CF911F910F910895AEE0B0E0F0
S1132240E4E2F1E10C948F0F8C0186E08C831A8315
S113225009838FEF9FE79E838D83CE0101960E94B1
S1132260040CEF81F885E00FF11F10822E96E4E054
S11322700C94AB0FFA01AA27283051F1203181F1D7
S1132280E8946F936E7F6E5F7F4F8F4F9F4FAF4F7A
S1132290B1E03ED0B4E03CD0670F781F891F9A1F8D
S11322A0A11D680F791F8A1F911DA11D6A0F711D41
S11322B0811D911DA11D20D009F468943F912AE04D
S11322C0269F11243019305D3193DEF6CF01089535
S11322D0462F4770405D4193B3E00FD0C9F7F6CF66
S11322E0462F4F70405D4A3318F0495D31FD40522E
S11322F0419302D0A9F7EACFB4E0A69597958795C4
S113230077956795BA95C9F70097610571050895A2
S11323109B01AC010A2E069457954795379527954E
S1132320BA95C9F7620F731F841F951FA01D0895E6
S1132330F999FECF92BD81BDF89A992780B5089589
S1132340A6E1B0E044E050E00C94C911A8E1B0E08B
S113235042E050E00C94C911262FF999FECF1FBA20
S113236092BD81BD20BD0FB6F894FA9AF99A0FBEBA
S113237001960895242F0E94AD11252F0E94AD11BE
S11323800C94C2110E94AC11272F0C94AD11DC01E6
S1132390CB01FC01F999FECF06C0F2BDE1BDF89A6C
S11323A0319600B40D9241505040B8F70895F89416
S10523B0FFCF59
S11323B200004000140054004F4646004F4E2000D7
S11323C220206B562020206D4120202052554E2083
S11323D2204552520025322E3166202025312E32DC
S11323E266202025337320203030450025322E31DB
S11323F266202025312E326620202533732020309A
S113240230490025322E3166202025312E326620B5
S11324122025337320203030200020202000253254
S11324222E3166202025312E32662020253373205A
S109243220253032640095
S9030000FC
