S0130000436E74496E7665727465722E737265639D
S11300000C94B5000C94EF040C9403050C94D200EA
S11300100C94D2000C94D2000C94D2000C94940250
S11300200C94D2000C94D2000C94D2000C94D20004
S11300300C94D2000C94D2000C94D2000C94D200F4
S11300400C94D2000C94D2000C94D2000C94D200E4
S11300500C94D2000C94D2000C94D2000C94D200D4
S11300600C94D2000C94D2006E616E00696E66002E
S113007000407A10F35A00A0724E18090010A5D45B
S1130080E80000E87648170000E40B54020000CAB8
S11300909A3B000000E1F5050000809698000000FE
S11300A040420F000000A08601000000102700005D
S11300B00000E803000000006400000000000A00E3
S11300C0000000000100000000002C76D888DC67E6
S11300D04F0823DFC1DFAE59E1B1B796E5E3E4533E
S11300E0C63AE651997696E8E6C28426EB898C9B5B
S11300F062ED407C6FFCEFBC9C9F40F2BAA56FA5FB
S1130100F490055A2AF75C936B6CF9676DC11BFC7C
S1130110E0E40D47FEF520E6B500D0ED902E030097
S1130120943577050080841E080000204E0A0000E4
S113013000C80C333333330F986E12831141EF8DA3
S11301402114893BE65516CFFEE6DB18D1844B38E3
S11301501BF77C1D901DA4BBE424203284725E2214
S11301608100C9F124ECA1E53D2711241FBECFEF86
S1130170D8E0DEBFCDBF11E0A0E0B1E0E8EDF2E2EF
S113018002C005900D92A234B107D9F722E0A2E48F
S1130190B1E001C01D92A03AB207E1F70E947B03CF
S11301A00C946A110C940000BC01ECE7F0E080812F
S11301B0807F80838081862B8083EAE7F0E08081E2
S11301C080648083908196FDFDCF81E2869F9001BB
S11301D0879F300D1124F901E75AFE4F90A14091F9
S11301E0780050917900E92FF0E0EE0FFF1F2E0FF9
S11301F03F1FF901E75AFE4F518340839F5F9031BF
S113020048F4869FF001879FF00D1124E75AFE4FB2
S113021090A309C081E2869FF001879FF00D11240D
S1130220E75AFE4F10A281E2869FA001879F500DDE
S11302301124FA01E75AFE4F47585E4F80E090E0E0
S113024021913191820F931FE417F507C9F7929515
S113025082958F7089279F708927089596B190950C
S1130260292F2E7080914A01822720934A018823E6
S113027099F081FF05C081E091FD15C080E00895EB
S113028082FF04C092FD0AC080E0089583FF08C085
S113029093FD08C080E0089580E0089582E0089509
S11302A080E0089583E00895813061F028F0823081
S11302B0A1F08330F9F027C06091400270E080E043
S11302C090E00895E62FF0E0EE0FFF1FE05CFD4F95
S11302D06181728180E090E00895E62FF0E0EE0FF6
S11302E0FF1FE05CFD4F67817085072E000C880BB3
S11302F0990B089560914D0270914E0280914F02C6
S113030090915002089560E070E0CB010895942F1D
S1130310752F813081F028F0823011F18330A9F1FA
S1130320089520934002622F80914B0190914C01DB
S11303300E943F110895862F90E0622F732F880F3B
S1130340991FFC01E05CFD4F2183328301962091CB
S11303504B0130914C01820F931F0E945511089557
S1130360862F90E0880F991FFC01E05CFD4F2783E6
S11303703087079640914B0150914C01622F732FA7
S1130380840F951F0E9455110895E0E4F2E025873B
S113039036874787508BE0914B01F0914C01422FF7
S11303A0532F692FCF010D960E944D110895CF92BE
S11303B0DF92EF92FF920F931F93CF93DF9381E12C
S11303C0E0E4F2E0DF011D928A95E9F780E090E035
S11303D00E942B11823D19F1C0E02EE130E040E093
S11303E050E06C2F81E00E94870120E030E0A901F9
S11303F06C2F82E00E948701CF5FC33071F720E049
S113040030E0A90160E083E00E94870122ED30E042
S113041040E050E060E080E00E94870130C0E0905E
S11304204B01F0904C01C7010E942B1180934002B4
S113043087010F5F1F4FC1E4D2E00F2EF7E4CF2EE8
S1130440F2E0DF2EF02DC8010E94391189939993AF
S1130450C80106960E9439119D838C830E5F1F4F3D
S1130460CC15DD0581F7C7010D960E943311609309
S11304704D0270934E0280934F0290935002DF918D
S1130480CF911F910F91FF90EF90DF90CF9008953F
S1130490219AE0E8F0E0808183688083E1E8F0E07D
S11304A0808182608083109289001092880010926B
S11304B0850010928400089524E0829FC0011124D5
S11304C0909389008093880008951092B0008BE087
S11304D08093B10082E08093700088EE8093B30033
S11304E01092510110925201109253011092540132
S11304F01092550110925601109257011092580112
S11305000895F89420915101309152014091530182
S11305105091540160915501709156018091570199
S113052090915801789408951F920F920FB60F92EC
S113053011242F933F934F935F936F937F938F93E4
S11305409F93AF93209151013091520140915301F7
S11305505091540160915501709156018091570159
S113056090915801A1E00E94720F209351013093A1
S11305705201409353015093540160935501709379
S113058056018093570190935801AF919F918F9199
S11305907F916F915F914F913F912F910F900FBE7B
S11305A00F901F901895AF92BF92CF92DF92EF9267
S11305B0FF920F931F93A22EB32EC42ED52EE62E98
S11305C0F72E082F192F0E9481020E94690F1F9194
S11305D00F91FF90EF90DF90CF90BF90AF90089570
S11305E0AF92BF92CF92DF92EF92FF920F931F933D
S11305F0A22EB32EC42ED52EE62EF72E082F192F99
S11306000E9481020E947E0F20953095409550955E
S113061060957095809590950FE30E944D0F822F01
S11306201F910F91FF90EF90DF90CF90BF90AF900C
S11306300895209142013091430140914401509129
S11306404501609146017091470180914801909164
S113065049010E94F0028823F1F09BB180E18927CF
S11306608BB90E9481022C503E4F4F4F5F4F6F4F0A
S11306707F4F8F4F9F4F209342013093430140930C
S11306804401509345016093460170934701809360
S11306904801909349010895F8948EEF84B915B8F0
S11306A017B880E38AB980EF8BB98AE08093690038
S11306B083E08DBBEAE7F0E0808187608083ACE76C
S11306C0B0E08C9180648C938081806880830E94E8
S11306D065020E9448028EE70E949B0A80E00E9405
S11306E00A0B2FE38DE093E0215080409040E1F726
S11306F000C0000008950E944C03E1E5F2E013827B
S113070014821282CF010E948D03789481E592E0D5
S11307100E9456060E941903F9CFCF93DF93EC0190
S11307208FE4FE0111928A95E9F70E94D70184E1D2
S113073090E098878F831D8289818E836B8181E00D
S11307400E94540178876F83329905C082E08C83BC
S113075081E0888301C018820E94FE0ADF91CF9154
S113076008951F93CF93DF93FC01248121115CC072
S1130770EC0180E191E09F938F9381E08F930E943D
S1130780130B0F900F900F908B81811133C01B8539
S11307908C8981113AC02CE031E060E070E090E097
S11307A01F921F933F932F939F938F937F936F93E6
S11307B06F817885072E000C880B990B0E947009B5
S11307C020E030E040E251EC0E94C6089F938F93F2
S11307D07F936F9385E291E09F938F9382E08F9351
S11307E00E94130B8DB79EB70F960FB6F8949EBF59
S11307F00FBE8DBFCD5BDF4F89E499E0A0E0B0E090
S113080088839983AA83BB830FC069857A8580E036
S113081090E00E946E0920E030E048EC52E40E942F
S1130820C60828E031E0BCCFDF91CF911F91089535
S1130830811105C0662311F05D9A08955D980895AD
S1130840CF92DF92EF92FF92CF93DF93FC018081EE
S1130850811156C0EB0160E082E00E9454016B01FB
S11308607C01BE0180E090E00E946E0923E333E343
S113087043E250E40E94FC090E943809C60ED71EC8
S1130880C60102968F3F910519F014F08FEF90E0A6
S11308906C01992314F4C12CD12C80914D019091B9
S11308A04E018C159D0561F18C159D05ACF40E94DB
S11308B05C0289EF90E00197F1F700C0000080919D
S11308C04D0190914E01019690934E0180934D01FC
S11308D0C816D90664F714C00E945C02E9EFF0E080
S11308E03197F1F700C0000080914D0190914E01C5
S11308F0019790934E0180934D018C159D0564F7EB
S1130900DF91CF91FF90EF90DF90CF900895DF9229
S1130910EF92FF920F931F93CF93DF937C0125E017
S1130920E20EF11CFC012781308533233CF18C015C
S1130930C0E0D0E00F2EF3E0DF2EF02DF801848923
S1130940882321F0BE01C7010E942004C930D105CB
S11309501CF0DCBADDBA02C0DCBA1DBAFFE72AE13A
S113096086E0F15020408040E1F700C0000022966C
S1130970F801878190858C179D0704F7DF91CF914B
S11309801F910F91FF90EF90DF900895FC0120815B
S1130990211124C06623C1F01682108A118A128A9A
S11309A0138A23E02CBB2DBB83ED90E30197F1F771
S11309B000C000002A9A62817381CF010E94200442
S11309C081E080934F01089523E02CBB1DBA60E0C1
S11309D070E00E9420042A9810924F0108951F92FB
S11309E00F920FB60F9211248F9380914F01882399
S11309F021F081E0809366021DBA8F910F900FBEA3
S1130A000F901F9018951F920F920FB60F921124FA
S1130A108F9380914F01882321F081E080936702B6
S1130A201DBA8F910F900FBE0F901F901895CF9203
S1130A30DF92EF92FF920F931F93CF93DF93EC011A
S1130A408B81E82EF12C9E014DE1849F200D311DF8
S1130A50112489010B5F1F4F0E942E01823081F106
S1130A60833009F454C0813009F089C08C8181112C
S1130A7086C08DE18E9DF0018F9DF00D1124EC0F49
S1130A80FD1F8781908502968333910514F082E3DC
S1130A9090E090878783CE010E94B1038DE18E9D03
S1130AA0F0018F9DF00D1124EC0FFD1F8489882324
S1130AB009F465C067817085C8010E9420045FC085
S1130AC08C8181115CC08DE18E9DF0018F9DF00DB4
S1130AD01124EC0FFD1F87819085029712F480E0AA
S1130AE090E090878783CE010E94B1038DE18E9DB3
S1130AF0F0018F9DF00D1124EC0FFD1F84898823D4
S1130B00F1F167817085C8010E94200438C08C818E
S1130B10811135C08EE70E949B0A8DE18E9D600194
S1130B208F9DD00C1124CC0EDD1EF601948981E03A
S1130B308927848BCE010E94B103F601848988231E
S1130B4041F061E0C8010E94C604CE010E948704FE
S1130B5016C060E0C8010E94C6042DE12E9DC001AC
S1130B602F9D900D1124C80FD91F2F813885032E76
S1130B70000C440B550B60E081E00E948701DF917B
S1130B80CF911F910F91FF90EF90DF90CF90089538
S1130B90EF92FF920F931F93CF93DF93EC018B811E
S1130BA0E82EF12C9E014DE1849F200D311D11246E
S1130BB089010B5F1F4F0E942E01823069F183303F
S1130BC009F44EC0813009F06AC08DE18E9DF001B8
S1130BD08F9DF00D1124EC0FFD1F878190850296E7
S1130BE08333910514F082E390E090878783CE01EC
S1130BF00E94B1038DE18E9DF0018F9DF00D1124B3
S1130C00EC0FFD1F8489882309F449C0678170852E
S1130C10C8010E94200443C08DE18E9DF0018F9D88
S1130C20F00D1124EC0FFD1F87819085029712F4BB
S1130C3080E090E090878783CE010E94B1038DE12C
S1130C408E9DF0018F9DF00D1124EC0FFD1F848902
S1130C50882329F167817085C8010E9420041FC080
S1130C608DE18E9D80018F9D100D11240C0F1D1F91
S1130C70F801948981E08927848BCE010E94B10315
S1130C80F8018489882331F061E0CE0105960E9441
S1130C90C60405C060E0CE0105960E94C604DF913B
S1130CA0CF911F910F91FF90EF9008954F925F9213
S1130CB06F927F928F929F92AF92BF92CF92DF9268
S1130CC0EF92FF920F931F93CF93DF93EC0181E098
S1130CD090E00E94D400BC0180E090E00E946E0984
S1130CE022E537E240E25CE30E94FC09688B798BE1
S1130CF08A8B9B8B80E090E00E94D400BC0180E052
S1130D0090E00E946E0924E83BE240E25BE30E942B
S1130D10FC096C877D878E879F8720E030E048EC54
S1130D2052E40E94FC090E943F097A8769878B85F7
S1130D308111D6C14E0125E0820E911C8D89882334
S1130D4009F4E4C01D8A8F898F5F8F8B853070F022
S1130D5081E08B872A9860E070E0C4010E9420043F
S1130D601C8A1F8A8EE70E949B0AD0C02A981C8A7C
S1130D7060E070E0C4010E9420048EE70E949B0A98
S1130D80CE010E94B103E12CF12C0F2EFCE0AF2E1A
S1130D90F1E0BF2EF02D05E211E06894552451F8DE
S1130DA044244394612C0F2EFDE3CF2EF1E0DF2E7B
S1130DB0F02D7720F1F17B848C89882369F0698593
S1130DC07A8580E090E00E946E0920E030E048ECF3
S1130DD052E40E94C60804C0662D762D862D962DF9
S1130DE01F927F92DF92CF929F938F937F936F9303
S1130DF06F817885072E000C880B990B0E9470096F
S1130E0020E030E040E251EC0E94C6089F938F93AB
S1130E107F936F931F930F935F920E94130B8DB771
S1130E209EB70F960FB6F8949EBF0FBE8DBF762C5B
S1130E303DC07B848C89882369F069857A8580E04C
S1130E4090E00E946E0920E030E048EC52E40E94F9
S1130E50C60804C0662D762D862D962D1F927F928E
S1130E60BF92AF929F938F937F936F936F81788597
S1130E70072E000C880B990B0E94700920E030E0CB
S1130E8040E251EC0E94C6089F938F937F936F9327
S1130E901F930F935F920E94130B8DB79EB70F960B
S1130EA00FB6F8949EBF0FBE8DBF742C9FE322E44F
S1130EB08FE0915020408040E1F700C000009FEF98
S1130EC0E91AF90A2AE0E216F10409F072CF8F81D7
S1130ED0988502971AF098878F8302C018861F821C
S1130EE081E08C8B2A9ACE010E948704CE010E9455
S1130EF0B1032F813885032E000C440B550B60E0A1
S1130F0081E00E94870183E08CBB8DBB8E8988239E
S1130F1009F4E6C01E8A888D8F5F888F853070F053
S1130F2082E08B872A9860E070E0C4010E9420046C
S1130F301C8A188E8EE70E949B0AD2C02A981C8AAB
S1130F4060E070E0C4010E9420048EE70E949B0AC6
S1130F50CE010E94B10300E010E00F2EFCE0AF2EA2
S1130F60F1E0BF2EF02D0F2EF5E2EF2EF1E0FF2E73
S1130F70F02D6894882481F866246394912C0F2EB4
S1130F80FDE3CF2EF1E0DF2EF02D7720F1F17B840D
S1130F908C89882369F069857A8580E090E00E94D5
S1130FA06E0920E030E048EC52E40E94C60804C018
S1130FB0692D792D892D992D1F927F92DF92CF92E1
S1130FC09F938F937F936F936F817885072E000C87
S1130FD0880B990B0E94700920E030E040E251EC4C
S1130FE00E94C6089F938F937F936F93FF92EF9213
S1130FF08F920E94130B8DB79EB70F960FB6F8947D
S11310009EBF0FBE8DBF792C3DC07B848C89882305
S113101069F069857A8580E090E00E946E0920E09D
S113102030E048EC52E40E94C60804C0692D792DD2
S1131030892D992D1F927F92BF92AF929F938F9388
S11310407F936F936F817885072E000C880B990B23
S11310500E94700920E030E040E251EC0E94C60892
S11310609F938F937F936F93FF92EF928F920E943F
S1131070130B8DB79EB70F960FB6F8949EBF0FBE95
S11310808DBF762C9FE322E48FE091502040804076
S1131090E1F700C000000F5F1F4F0A30110509F08F
S11310A074CF8F81988502971AF098878F8302C036
S11310B018861F8281E08C8B2A9ACE010E948704B5
S11310C0CE010E94B1032F813885032E000C440BFE
S11310D0550B60E081E00E94870183E08CBB8DBBEF
S11310E08881811104C0CE010E9417052FC0CE0152
S11310F00E94C8052BC061E081E00E94180404C06E
S113110060E081E00E9418048E8C9F8CA8A0B9A096
S1131110282D392D4A2D5B2D60E070E080E090E0B1
S11311200E94F002882309F120ED37E040E050E00E
S113113060E070E080E090E00E94D3022E8F3F8F49
S113114048A359A3CE010E94B1030FC08B8581111E
S113115004C060E00E94180404C061E080E00E94C2
S113116018048B858111C7CFCBCFDF91CF911F910D
S11311700F91FF90EF90DF90CF90BF90AF909F9032
S11311808F907F906F905F904F9008950E94DA083F
S11311900C94C2090E94BB0958F00E94B40940F0A3
S11311A029F45F3F29F00C94AB0951110C94F60912
S11311B00C94B1090E94D30968F39923B1F3552320
S11311C091F3951B550BBB27AA2762177307840756
S11311D038F09F5F5F4F220F331F441FAA1FA9F3EC
S11311E035D00E2E3AF0E0E832D091505040E695DA
S11311F0001CCAF72BD0FE2F29D0660F771F881F3B
S1131200BB1F261737074807AB07B0E809F0BB0B2D
S1131210802DBF01FF2793585F4F3AF09E3F510541
S113122078F00C94AB090C94F6095F3FE4F3983E14
S1131230D4F3869577956795B795F7959F5FC9F72A
S1131240880F911D9695879597F90895E1E0660FAB
S1131250771F881FBB1F621773078407BA0720F024
S1131260621B730B840BBA0BEE1F88F7E09508958D
S11312700E943F096894B1110C94F60908950E94E4
S1131280DB0988F09F5798F0B92F9927B751B0F030
S1131290E1F0660F771F881F991F1AF0BA95C9F7F6
S11312A014C0B13091F00E94F509B1E008950C9496
S11312B0F509672F782F8827B85F39F0B93FCCF349
S11312C0869577956795B395D9F73EF49095809573
S11312D0709561957F4F8F4F9F4F0895E89409C093
S11312E097FB3EF490958095709561957F4F8F4F55
S11312F09F4F9923A9F0F92F96E9BB279395F6956B
S1131300879577956795B795F111F8CFFAF4BB0FE8
S113131011F460FF1BC06F5F7F4F8F4F9F4F16C04C
S1131320882311F096E911C0772321F09EE8872FD6
S1131330762F05C0662371F096E8862F70E060E092
S11313402AF09A95660F771F881FDAF7880F96950B
S1131350879597F9089597F99F6780E870E060E0B2
S113136008959FEF80EC089500240A94161617063A
S113137018060906089500240A9412161306140682
S113138005060895092E0394000C11F4882352F0E5
S1131390BB0F40F4BF2B11F460FF04C06F5F7F4F9D
S11313A08F4F9F4F089557FD9058440F551F59F084
S11313B05F3F71F04795880F97FB991F61F09F3F3E
S11313C079F087950895121613061406551FF2CF67
S11313D04695F1DF08C0161617061806991FF1CFB7
S11313E086957105610508940895E894BB276627DE
S11313F07727CB0197F908950E940F0A0C94C2092C
S11314000E94B40938F00E94BB0920F0952311F022
S11314100C94AB090C94B10911240C94F6090E94A4
S1131420D30970F3959FC1F3950F50E0551F629F48
S1131430F001729FBB27F00DB11D639FAA27F00D29
S1131440B11DAA1F649F6627B00DA11D661F829F50
S11314502227B00DA11D621F739FB00DA11D621F35
S1131460839FA00D611D221F749F3327A00D611D52
S1131470231F849F600D211D822F762F6A2F112434
S11314809F5750409AF0F1F088234AF0EE0FFF1F67
S1131490BB1F661F771F881F91505040A9F79E3FBE
S11314A0510580F00C94AB090C94F6095F3FE4F30A
S11314B0983ED4F3869577956795B795F795E79514
S11314C09F5FC1F7FE2B880F911D9695879597F91D
S11314D00895CF93DF9300D000D0CDB7DEB7962F19
S11314E0907F942B292F2C60298398609A8390E114
S11314F0699FB0011124642B962F9C609B836860C4
S11315006C8344E050E0BE016F5F7F4F0E946E0B1E
S1131510EFECF7E03197F1F700C000000F900F9067
S11315200F900F90DF91CF91089540E00C94690AD9
S113153041E00C94690ACF93C82F0E94370B2FEF18
S113154080E792E0215080409040E1F700C0000025
S113155060E38C2F0E94950A60E38C2F0E94950A09
S113156060E38C2F0E94950A62E08C2F0E94950AFA
S11315706CE08C2F0E94950A61E08C2F0E94950AE2
S1131580C0935001CF910895CF93DF93EC016991FB
S1131590662329F0809150010E94980AF8CFDF91C8
S11315A0CF910895CF93DF93CDB7DEB728970FB6C9
S11315B0F894DEBF0FBECDBF98E0E0E0F1E0DE01BD
S11315C0119601900D929A95E1F79E012F5F3F4F7E
S11315D0260F311D260F311DF90132976081860FC8
S11315E0682F60688091500128960FB6F894DEBF8A
S11315F00FBECDBFDF91CF910C94950A61E080912D
S113160050010E94950A8FE39FE10197F1F700C012
S113161000000895882311F06CE001C068E0809117
S113162050010C94950ACF93DF93CDB7DEB7A09702
S11316300FB6F894DEBF0FBECDBFAE01485D5F4F5D
S11316406EA17FA1CE0101960E94B1106DA180E030
S11316500E94D20ACE0101960E94C40AA0960FB637
S1131660F894DEBF0FBECDBFDF91CF91089588E41B
S11316708093B80008951092BC0094EA9093BC0043
S11316809091BC0097FFFCCF9091B900987F98305F
S113169011F081E008958093BB0084E88093BC003E
S11316A08091BC0087FFFCCF8091B900887F88318E
S11316B011F0803471F780E008958093BB0084E8D2
S11316C08093BC008091BC0087FFFCCF9091B9004F
S11316D0987F81E0983209F480E00895DF92EF92D8
S11316E0FF920F931F93CF93DF93D62E072F7A0188
S11316F00E943B0B182F81110CC0CD2DD02FEC0E66
S1131700FD1ECE15DF0539F089910E945D0B8823FB
S1131710C1F311E003C084E98093BC00812FDF9101
S1131720CF911F910F91FF90EF90DF900895A0E16A
S1131730B0E0EDE9FBE00C94140F7C011B016A019D
S1131740FC0117821682838181FF44C39E012F5FAF
S11317503F4F3901F7019381F10193FD859193FF87
S113176081911F01882309F431C3853239F493FD33
S1131770859193FF81911F01853239F4B70190E07F
S11317800E94751056016501E5CF10E0512C912C93
S1131790FFE1F915D8F08B3279F038F4803279F022
S11317A08332A1F4F92DF0612EC08D3261F08033C3
S11317B069F4292D21602DC0392D3260932E892D95
S11317C08460982E2AC0E92DE86015C097FC2DC0CE
S11317D020ED280F2A3088F496FE06C03AE0139FC5
S11317E0200D1124122F19C08AE0589E200D1124B7
S11317F0522EE92DE0629E2E10C08E3231F496FCFA
S1131800E5C2F92DF0649F2E08C08C3621F4292DF1
S11318102068922E02C0883641F4F10193FD85912F
S113182093FF81911F018111B3CF9BEB980F9330EC
S113183020F4992D9061805E07C09BE9980F933046
S113184008F066C1992D9F7E96FF16E09F73992E2E
S1131850853619F49064992E08C0863621F4392F00
S11318603068932E02C01111115097FE07C01C332B
S113187050F444244394410E27E00BC0183038F050
S113188027E017E005C027E09CE3492E02C0212F82
S1131890412C560184E0A80EB11CF60160817181CF
S11318A082819381042DA3010E94870F6C01F98129
S11318B0FC87F0FF02C0F3FF06C091FC06C092FE55
S11318C006C000E205C00DE203C00BE201C000E067
S11318D08C858C7019F001115AC29BC297FE10C0FE
S11318E04C0CFC85F4FF04C08A81813309F44A94CA
S11318F0141474F528E0241578F588E0482E2CC0DB
S113190096FC2AC0812F90E08C159D059CF03CEF3D
S1131910C3163FEFD30674F0892D8068982E0AC051
S1131920E2E0F0E0EC0FFD1FE10FF11D8081803358
S113193019F411501111F4CF97FE0EC044244394AE
S1131940410E812F90E0C816D9062CF41C1904C04E
S11319504424439401C010E097FE06C01C141D04E7
S113196034F4C601019605C085E090E002C081E030
S113197090E001110196112331F0212F30E02F5F07
S11319803F4F820F931F252D30E08217930714F4E5
S1131990581A01C0512C892D897049F4552039F009
S11319A0B70180E290E00E9475105A94F7CF0023AB
S11319B029F0B701802F90E00E94751093FC09C0B4
S11319C0552039F0B70180E390E00E9475105A94D5
S11319D0F7CF97FE4CC04601D7FE02C0812C912C54
S11319E0C60188199909F301E80FF91FFE87ED87ED
S11319F0960124193109388B2F87012F10E0119596
S1131A00019511093FEF8316930629F4B7018EE27D
S1131A1090E00E947510C814D9044CF08F85988901
S1131A208815990524F4ED85FE85818101C080E344
S1131A30F1E08F1A91082D853E852F5F3F4F3E8739
S1131A402D87801691062CF0B70190E00E94751046
S1131A50D9CFC814D90441F49A81963320F495332C
S1131A6019F43C8534FF81E3B70190E04EC08A81CC
S1131A70813319F09C859F7E9C87B70190E00E947A
S1131A807510111105C094FC18C085E690E017C0CC
S1131A90B7018EE290E00E9475101E5F82E001E0C3
S1131AA0080FF301E80FF11D8081B70190E00E9457
S1131AB07510802F0113F3CFE6CF85E490E0B701D2
S1131AC00E947510D7FC06C0C114D10441F4EC8502
S1131AD0E4FF05C0D194C194D1088DE201C08BE22A
S1131AE0B70190E00E94751080E32AE0C216D10489
S1131AF02CF08F5FFAE0CF1AD108F7CFB70190E04E
S1131B000E947510B701C601C0960E94751054C199
S1131B10833631F0833779F0833509F056C020C01D
S1131B20560132E0A30EB11CF6018081898301E0E5
S1131B3010E0630112C05601F2E0AF0EB11CF601D1
S1131B40C080D18096FE03C0612F70E002C06FEFA9
S1131B507FEFC6010E946A108C01F92DFF7714C033
S1131B60560122E0A20EB11CF601C080D18096FE7F
S1131B7003C0612F70E002C06FEF7FEFC6010E94C7
S1131B805F108C01F92DF0689F2EF3FD1AC0852D8E
S1131B9090E008171907A8F4B70180E290E00E94CA
S1131BA075105A94F4CFF60197FC859197FE8191B4
S1131BB06F01B70190E00E94751051105A940150C2
S1131BC011090115110579F7F7C0843611F089362A
S1131BD061F5560197FE09C024E0A20EB11CF6017E
S1131BE060817181828193810AC0F2E0AF0EB11CE1
S1131BF0F60160817181072E000C880B990BF92D79
S1131C00FF769F2E97FF09C09095809570956195FA
S1131C107F4F8F4F9F4FF0689F2E2AE030E0A30143
S1131C200E94CD10C82EC6183FC0092D853721F457
S1131C300F7E2AE030E01DC0097F8F3691F018F442
S1131C40883559F0C3C0803719F0883711F0BEC009
S1131C50006104FF09C0046007C094FE08C0066068
S1131C6006C028E030E005C020E130E002C020E1F9
S1131C7032E0560107FF09C084E0A80EB11CF6014A
S1131C80608171818281938108C0F2E0AF0EB11C42
S1131C90F6016081718180E090E0A3010E94CD1083
S1131CA0C82EC6180F77902E96FE0BC0092D0E7FF6
S1131CB0C11650F494FE0AC092FC08C0092D0E7E91
S1131CC005C0DC2C092D03C0DC2C01C0D12E04FF7F
S1131CD00DC0FE01EC0DF11D8081803311F4097EED
S1131CE009C002FF06C0D394D39404C0802F867821
S1131CF009F0D39403FD11C000FF06C01C2DD514B8
S1131D0080F4150D1D190DC0D51458F4B70180E2E7
S1131D1090E00E947510D394F7CFD51410F45D1899
S1131D2001C0512C04FF10C0B70180E390E00E9471
S1131D30751002FF17C001FD03C088E790E002C0E0
S1131D4088E590E0B7010CC0802F867859F001FF38
S1131D5002C08BE201C080E207FD8DE2B70190E092
S1131D600E947510C11638F4B70180E390E00E9418
S1131D7075101150F7CFCA94F301EC0DF11D808159
S1131D80B70190E00E947510C110F5CF15C0F4E0C2
S1131D90F51560F584E0581A93FE1FC0011127C0A1
S1131DA02C8523FF2AC008E610E0392D3071932ECC
S1131DB0F8018491811124C0552009F4E4CCB701C1
S1131DC080E290E00E9475105A94F6CFF701868164
S1131DD0978126C08FEF9FEF23C0B70180E290E088
S1131DE00E9475105A945110F8CFD8CF512CB701D6
S1131DF0802F90E00E947510D3CF0CE610E0D5CF71
S1131E0091108052B70190E00E9475100F5F1F4F30
S1131E10CFCF23E0251510F483E0BDCF512CC0CFE4
S1131E206096E2E10C94300F2F923F924F925F92B2
S1131E306F927F928F929F92AF92BF92CF92DF92D6
S1131E40EF92FF920F931F93CF93DF93CDB7DEB73B
S1131E50CA1BDB0B0FB6F894DEBF0FBECDBF0994CF
S1131E602A88398848885F846E847D848C849B8426
S1131E70AA84B984C884DF80EE80FD800C811B8134
S1131E80AA81B981CE0FD11D0FB6F894DEBF0FBE63
S1131E90CDBFED01089597FB10F8169400080F9339
S1131EA0083098F00850232F342F452F562F672FD2
S1131EB0782F892F902DF4CF059497958795779552
S1131EC0679557954795379527950A95AAF70F91E2
S1131ED008952A0D3B1D4C1D5D1D6E1D7F1D801F29
S1131EE0911F08950024A7FD00942A0F301D401D62
S1131EF0501D601D701D801D901D08952A193B09F9
S1131F004C095D096E097F09800B910B08952830F7
S1131F1008F027E03327DA01990F311D87FD91601E
S1131F2000966105710539F432602E5F3D9330E30C
S1131F302A95E1F708959F3F30F0803871056105D7
S1131F4009F03C5F3C5F3D93913008F08068911D3F
S1131F50DF93CF931F930F93FF92EF92192F987FE4
S1131F609695E92F96959695E90FFF27E653FF4F2F
S1131F7099273327EE24FF24A701E701059008944D
S1131F80079428F4360FE71EF81E491F511D660FEB
S1131F90771F881F991F0694A1F70590079428F4CA
S1131FA0E70EF81E491F561FC11D770F881F991F82
S1131FB0661F0694A1F70590079428F4F80E491FAC
S1131FC0561FC71FD11D880F991F661F771F0694C0
S1131FD0A1F70590079420F4490F561FC71FD81F77
S1131FE0990F661F771F881F0694A9F7849110958F
S1131FF0177041F0D695C79557954795F794E79490
S11320001A95C1F7E0E7F0E06894159015913591C1
S11320106591959105907FE27395E118F10A430B60
S1132020560BC90BD009C0F7E10CF11E431F561F14
S1132030C91FD01D7EF4703311F48A95E6CFE8945D
S1132040015030F0080F0AF40027021708F4202F7B
S11320502395022F7A3328F079E37D932A95E9F7C3
S113206010C07D932A9589F60694979567953795C0
S113207017951794E118F10A430B560BC90BD009B5
S113208098F023957E9173957A3308F070E37C93EE
S11320902013B8F77E9170617D9330F0839571E3DE
S11320A07D9370E32A95E1F71124EF90FF900F914F
S11320B01F91CF91DF91992787FD90950895FC0199
S11320C00590615070400110D8F7809590958E0F5F
S11320D09F1F0895FC016150704001900110D8F7D2
S11320E0809590958E0F9F1F08950F931F93CF9304
S11320F0DF93FB01238121FD03C08FEF9FEF2CC0F1
S113210022FF16C046815781248135814217530727
S113211044F4A081B1819D012F5F3F4F318320831F
S11321208C93268137812F5F3F4F3783268314C0DA
S11321308B01EC01FB010084F185E02D0995892BCD
S1132140E1F6D80116968D919C91179701961796F2
S11321509C938E931697CE01DF91CF911F910F918F
S11321600895AEE0B0E0E7EBF0E10C94220F8C01AF
S113217086E08C831A8309838FEF9FE79E838D8388
S1132180CE0101960E94970BEF81F885E00FF11FB5
S113219010822E96E4E00C943E0FFA01AA27283010
S11321A051F1203181F1E8946F936E7F6E5F7F4F20
S11321B08F4F9F4FAF4FB1E03ED0B4E03CD0670F9C
S11321C0781F891F9A1FA11D680F791F8A1F911DEF
S11321D0A11D6A0F711D811D911DA11D20D009F43F
S11321E068943F912AE0269F11243019305D319381
S11321F0DEF6CF010895462F4770405D4193B3E06A
S11322000FD0C9F7F6CF462F4F70405D4A3318F010
S1132210495D31FD4052419302D0A9F7EACFB4E0C1
S1132220A6959795879577956795BA95C9F7009779
S11322306105710508959B01AC010A2E069457951A
S1132240479537952795BA95C9F7620F731F841F71
S1132250951FA01D0895F999FECF92BD81BDF89AEE
S1132260992780B50895A6E1B0E044E050E00C94CD
S11322705C11A8E1B0E042E050E00C945C11262F20
S1132280F999FECF1FBA92BD81BD20BD0FB6F89457
S1132290FA9AF99A0FBE01960895242F0E944011CC
S11322A0252F0E9440110C9455110E943F11272F95
S11322B00C944011DC01CB01FC01F999FECF06C05E
S11322C0F2BDE1BDF89A319600B40D9241505040F0
S10B22D0B8F70895F894FFCF5C
S11322D800004000140054004F4E20004F464600B2
S11322E820206B562020206D4120202052554E205E
S11322F8204552520025322E3166202025312E32B7
S113230866202025337320202530326400202020C5
S10523180000BF
S9030000FC
